S01D00004C61626F7261746F72696F322D4469676974616C322E737265633A
S11300000C9434000C9451000C9451000C94510045
S11300100C9451000C9451000C9451000C94510018
S11300200C9451000C9451000C9451000C94510008
S11300300C9451000C9451000C9451000C945100F8
S11300400C9451000C9451000C9413040C94510022
S11300500C9451000C94D3030C9451000C94510053
S11300600C9451000C94510011241FBECFEFD8E022
S1130070DEBFCDBF11E0A0E0B1E0E4EDF8E002C0E6
S113008005900D92A638B107D9F721E0A6E8B1E0B2
S113009001C01D92AE38B207E1F70E9444030C94EC
S11300A068040C940000ECE7F0E01082808187641F
S11300B08083EAE7F0E0108280818F68808380810A
S11300C080648083089580FF04C09BB190629BB9D3
S11300D003C09BB19F7D9BB981FF04C09BB1906419
S11300E09BB903C09BB19F7B9BB982FF04C09BB1AA
S11300F090689BB903C09BB19F779BB983FF04C0F1
S113010095B1916095B903C095B19E7F95B984FF6F
S113011004C095B1926095B903C095B19D7F95B91E
S113012085FF04C095B1946095B903C095B19B7FD8
S113013095B986FF04C095B1986095B903C095B18F
S1130140977F95B9882324F485B1806185B9089592
S113015085B18F7E85B908959BB19B7F9BB90E9421
S113016063008BB188608BB92FEF80E792E0215058
S113017080409040E1F700C000008BB1877F8BB9CD
S11301802FEF80E792E0215080409040E1F700C0DB
S1130190000008958AB18C6E8AB984B18F6184B9E4
S11301A085B1807E85B98BB183718BB92FEF89EFCF
S11301B090E0215080409040E1F700C0000080E3CF
S11301C00E94AC008FE19EE40197F1F700C00000AB
S11301D080E30E94AC008FE99FE00197F1F700C033
S11301E0000080E30E94AC0088E30E94AC0088E039
S11301F00E94AC008CE00E94AC0086E00E94AC003F
S113020081E00E94AC008FE39FE10197F1F700C009
S1130210000008959BB194609BB90E9463008BB168
S113022088608BB98FE79EE30197F1F700C0000067
S11302308BB1877F8BB908950F931F93CF93DF936F
S11302408C01C0E0D0E003C00E940A012196F801AD
S1130250EC0FFD1F80818111F7CFDF91CF911F91AA
S11302600F910895613019F49FE7980F04C062302C
S113027011F49FEB980F892F0E94AC00089580E041
S113028091E00E94460489E091E00E94460481E2E4
S113029091E00E94460481E491E00E94460408959E
S11302A0CF92DF92EF92FF92CF93DF939C01A4EF62
S11302B0B1E00E9459046B017C010B2EBAE0F69464
S11302C0E794D794C794BA95D1F7B02DF601F69573
S11302D0E795F695E7959F01ABE7B4E10E945904D1
S11302E0AC015695479524E6249FC001259F900DA7
S11302F01124C81AD90ACDECCC9EC12D1124C6955F
S1130300C695C6959C2F990F892F880F880F890F42
S1130310DC2DD81B80E3840F0E940A018EE20E9428
S11303200A0180E38C0F0E940A0180E38D0F0E9472
S11303300A0189E591E00E941C01DF91CF91FF90B1
S1130340EF90DF90CF900895CF92DF92EF92FF92DB
S1130350CF93DF939C01A4EFB1E00E9459046B0199
S11303607C010B2EBAE0F694E794D794C794BA951F
S1130370D1F7B02DF601F695E795F695E7959F012F
S1130380ABE7B4E10E945904AC015695479524E6C5
S1130390249FC001259F900D1124C81AD90ACDECC1
S11303A0CC9EC12D1124C695C695C6959C2F990F38
S11303B0892F880F880F890FDC2DD81B80E3840FC9
S11303C00E943F048EE20E943F0480E38C0F0E944F
S11303D03F0480E38D0F0E943F0486E50E943F04A2
S11303E0DF91CF91FF90EF90DF90CF900895EF923F
S11303F0FF920F931F93CF93DF938C019C0136954B
S113040027953695279536952795A5ECB0E20E9459
S11304105904FC01F295E295EF70EF27FF70EF2786
S113042098013695279536952795ABE7B4E10E9458
S11304305904AC01569547959A01ADECBCEC0E9469
S113044059047C01F694E794F694E794F694E794BF
S1130450C701880F991FEE0CFF1CEE0CFF1CEE0C5D
S1130460FF1CE80EF91ECA018E199F097C01980130
S11304700E945904AC015695479556954795569553
S113048047959A010E945904EC01D695C795D695D3
S1130490C795D695C795CE01880F991FCC0FDD1F40
S11304A0CC0FDD1FCC0FDD1FC80FD91FCA018C1B59
S11304B09D0BEC01CA01880F991F440F551F440F6F
S11304C0551F440F551F480F591F041B150B80E37C
S11304D08E0F0E940A0180E38E0D0E940A018C2F68
S11304E0805D0E940A0180E3800F0E940A01DF916F
S11304F0CF911F910F91FF90EF900895EF92FF928B
S11305000F931F93CF93DF938C019C01369527950E
S11305103695279536952795A5ECB0E20E945904A7
S1130520FC01F295E295EF70EF27FF70EF27980139
S11305303695279536952795ABE7B4E10E94590483
S1130540AC01569547959A01ADECBCEC0E94590458
S11305507C01F694E794F694E794F694E794C70143
S1130560880F991FEE0CFF1CEE0CFF1CEE0CFF1CF9
S1130570E80EF91ECA018E199F097C0198010E9498
S11305805904AC0156954795569547955695479508
S11305909A010E945904EC01D695C795D695C79542
S11305A0D695C795CE01880F991FCC0FDD1FCC0FB0
S11305B0DD1FCC0FDD1FC80FD91FCA018C1B9D0B7B
S11305C0EC01CA01880F991F440F551F440F551F92
S11305D0440F551F480F591F041B150B80E38E0F42
S11305E00E943F0480E38E0D0E943F048C2F805DA7
S11305F00E943F0480E3800F0E943F04DF91CF916B
S11306001F910F91FF90EF900895CF93C82F8A30D8
S113061050F08DECC89F812D112486958695869582
S1130620805D0E940A019DECC99F912D112496952D
S113063096959695990F892F880F880F980F8C2F70
S1130640891B805D0E940A01CF9108958B3261F469
S1130650909189019A3030F4909189019F5F909331
S1130660890102C0109289018D3269F48091890157
S1130670882331F080918901815080938901089504
S11306808AE08093890108950E94CA000E94530061
S11306900E94260481E00E94AC008FE39FE1019751
S11306A0F1F700C0000061E082E00E9432018CE5B5
S11306B091E00E941C0161E087E00E94320180E623
S11306C091E00E941C0161E08CE00E94320184E60A
S11306D091E00E941C0178940E943F01809188015E
S11306E08823D9F110928801809186018133D9F44D
S11306F01092870188E691E00E94460480918C0163
S113070090918D010E94A40183E891E00E94460427
S113071080918A0190918B010E947E0283E891E08E
S11307200E9446041AC0823341F481E08093870119
S113073087E791E00E94460410C0909187019130B0
S113074051F48B3219F40E94260307C08D3229F428
S11307500E94260302C00E943F0162E081E00E94E1
S1130760320180918C0190918D010E94500162E0D0
S113077087E00E94320180918A0190918B010E944E
S1130780F70162E08DE00E943201809189010E94AC
S113079005039FEF21EE84E0915020408040E1F773
S11307A000C000009BCF1F920F920FB60F9211242E
S11307B02F933F938F939F93EF93FF9380917C00AC
S11307C087702091780030917900873069F43093F4
S11307D08D0120938C01ECE7F0E01082908190640D
S11307E09083908196609083863069F430938B0176
S11307F020938A01ECE7F0E010828081806480839A
S1130800808187608083EAE7F0E080818064808370
S1130810FF91EF919F918F913F912F910F900FBE78
S11308200F901F9018951F920F920FB60F921124DC
S11308308F938091C6008093860181E08093880124
S11308408F910F900FBE0F901F9018958AB1826000
S11308508AB98AB18E7F8AB91092C000E1ECF0E0C7
S1130860808188698083E2ECF0E080818660808307
S113087087E690E09093C5008093C400089590911A
S1130880C00095FFFCCF8093C60008950F931F937B
S1130890CF938C01C0E003C00E943F04CF5FF801F6
S11308A0EC0FF11D80818111F7CFCF911F910F9132
S11308B00895A29FB001B39FC001A39F700D811D35
S11308C01124911DB29F700D811D1124911D089555
S10708D0F894FFCFC6
S11308D40A204D656E753A0A00312E204C65657206
S11308E420506F74656E63696F6D6574726F730AFB
S11308F400322E20436F6E7461646F7220546572EB
S11309046D696E616C206120446973706C61790A4D
S11309140053656C656363696F6E6520756E612051
S11309246F7063696F6E3A0A0056200053313A00BF
S113093453323A0053333A000A2056616C6F7220E2
S1130944506F7473200A000A20436F6E7461646FDD
S1090954723A200A0000C3
S9030000FC
