:100000000C9434000C9451000C9451000C94510049
:100010000C9451000C9451000C9451000C9451001C
:100020000C9451000C9451000C9451000C9451000C
:100030000C9451000C9451000C9451000C945100FC
:100040000C9451000C9451000C9451000C945100EC
:100050000C9451000C9451000C9451000C945100DC
:100060000C9451000C94510011241FBECFEFD8E026
:10007000DEBFCDBF11E0A0E0B1E0E0E2F4E002C0FD
:1000800005900D92A830B107D9F721E0A8E0B1E0C2
:1000900001C01D92A830B207E1F70E94A0010C94A4
:1000A0000E020C940000ECE7F0E080818064808315
:1000B000EAE7F0E0808187688083808180648083C4
:1000C00008958370ECE7F0E09081987F90839081B1
:1000D000892B8083EAE7F0E08081806480838091CF
:1000E0007A0086FDFCCF8091780090917900089588
:1000F00080FF04C09BB190629BB903C09BB19F7D00
:100100009BB981FF04C09BB190649BB903C09BB1B4
:100110009F7B9BB982FF04C09BB190689BB903C0D1
:100120009BB19F779BB983FF04C095B1916095B94E
:1001300003C095B19E7F95B984FF04C095B19260CC
:1001400095B903C095B19D7F95B985FF04C095B160
:10015000946095B903C095B19B7F95B986FF04C0A3
:1001600095B1986095B903C095B1977F95B98823EB
:1001700024F485B1806185B9089585B18F7E85B9F4
:1001800008959BB19B7F9BB90E9478008BB18860DA
:100190008BB92FEF80E792E0215080409040E1F74B
:1001A00000C000008BB1877F8BB92FEF80E792E012
:1001B000215080409040E1F700C0000008958AB1CE
:1001C0008C6E8AB984B18F6184B985B1807E85B91E
:1001D0008BB183718BB92FEF89EF90E02150804074
:1001E0009040E1F700C0000080E30E94C1008FE171
:1001F0009EE40197F1F700C0000080E30E94C10077
:100200008FE99FE00197F1F700C0000080E30E94B2
:10021000C10088E30E94C10088E00E94C1008CE018
:100220000E94C10086E00E94C10081E00E94C100DE
:100230008FE39FE10197F1F700C0000008959BB1A3
:1002400094609BB90E9478008BB188608BB98FE76E
:100250009EE30197F1F700C000008BB1877F8BB957
:1002600008950F931F93CF93DF938C01C0E0D0E0EC
:1002700003C00E941F012196F801EC0FFD1F808131
:100280008111F7CFDF91CF911F910F9108956130C8
:1002900019F49FE7980F04C0623011F49FEB980F98
:1002A000892F0E94C1000895CF92DF92EF92FF92B2
:1002B0001F93CF93DF939C01A4EFB1E00E94FF0155
:1002C0006B017C010B2EBAE0F694E794D794C794A7
:1002D000BA95D1F7B02D20E030E941E050E00E941E
:1002E000DD01122FC701B60124E630E040E050E006
:1002F0000E94DD01CDEC6C9FC12D1124C695C695E1
:10030000C6959C2F990F892F880F880F890FD62F9C
:10031000D81B80E3810F0E941F018EE20E941F0103
:1003200080E38C0F0E941F0180E38D0F0E941F014C
:10033000DF91CF911F91FF90EF90DF90CF900895C4
:100340000E94DF000E94530081E00E94C1008FE301
:100350009FE10197F1F700C0000061E081E00E9499
:10036000470180E091E00E94310161E087E00E9456
:10037000470184E091E00E94310186E00E94610023
:10038000EC0162E081E00E944701CE010E9454012D
:1003900087E00E946100EC0162E087E00E94470173
:1003A000CE010E9454019FEF25EA8EE0915020403B
:1003B0008040E1F700C00000E0CFA1E21A2EAA1BA6
:1003C000BB1BFD010DC0AA1FBB1FEE1FFF1FA21705
:1003D000B307E407F50720F0A21BB30BE40BF50B02
:1003E000661F771F881F991F1A9469F7609570958B
:1003F000809590959B01AC01BD01CF010895A29F0E
:10040000B001B39FC001A39F700D811D1124911DE8
:10041000B29F700D811D1124911D0895F894FFCF96
:0804200053313A0053323A0057
:00000001FF
