S01900004C61626F72617469726F2031202D2044322E73726563C8
S11300000C9434000C9451000C9451000C94510045
S11300100C9494000C9451000C9451000C945100D5
S11300200C9451000C9451000C9451000C94510008
S11300300C9451000C9451000C9451000C945100F8
S11300400C945C010C9451000C9451000C945100DC
S11300500C9451000C9451000C9451000C945100D8
S11300600C9451000C94510011241FBECFEFD8E022
S1130070DEBFCDBF11E0A0E0B1E0E8E3F3E002C0F1
S113008005900D92AE30B107D9F721E0AEE0B1E0B2
S113009001C01D92A431B207E1F70E9475000C94CF
S11300A09A010C9400008FEF8AB91BB80895E82FC9
S11300B0F0E0EE0FFF1FE050FF4F80818BB90895F1
S11300C0E8E6F0E0808182608083ECE6F0E0808105
S11300D088638083089514BC85B5846085BD83E8F6
S11300E086BD81E080936E0008950E94530084B120
S11300F08F6284B985B1807D85B987B1876087B9FE
S113010088B1887F88B987B1877C87B988B18863CB
S113011088B91092C1000E9460000E946B0080E0C8
S11301200E9457007894FFCF1F920F920FB60F9240
S113013011242F933F934F935F936F937F938F93E8
S11301409F93AF93BF93EF93FF9333991CC0809118
S11301501301811118C081E08093130185E080931D
S11301600C01109212010E9457001092110110927A
S1130170100110920F0110920E0185B1807D85B996
S113018088B1887F88B9349945C080910C01811168
S113019041C080910E0181113DC0809111018F5F9A
S11301A080931101813039F480930F0185B1807FF0
S11301B0816085B91CC0823039F480930F0185B108
S11301C0807F826085B913C0833041F484E08093DA
S11301D00F0185B1807F846085B909C0843038F00F
S11301E088E080930F0185B1807F886085B9809114
S11301F00F01883079F481E080930E0188B1887F03
S113020088B985B18F7D85B985B18F6085B981E065
S11302100E94570035993FC080910C0181113BC069
S113022080910E01811137C0809110018F5F8093FE
S1130230100188B1887F88B985B18F7D85B9809197
S11302401001813021F488B1816088B911C08230F5
S113025021F488B1826088B90BC0833021F488B15D
S1130260846088B905C0843018F085B1806285B98E
S113027080911001843078F081E080930E0185B183
S1130280807F85B985B1806285B988B1876088B976
S113029082E00E945700FF91EF91BF91AF919F912F
S11302A08F917F916F915F914F913F912F910F901B
S11302B00FBE0F901F9018951F920F920FB60F92BA
S11302C011242F933F934F935F936F937F938F9357
S11302D09F93AF93BF93EF93FF9383E886BD809181
S11302E013018130B1F4809112018F5F8093120168
S11302F08A3F78F01092120180910C018150809312
S11303000C010E94570080910C01811102C01092CF
S11303101301FF91EF91BF91AF919F918F917F91C5
S11303206F915F914F913F912F910F900FBE0F905E
S10B03301F901895F894FFCF0B
S11103387E0030006D00790033005B0005008C
S9030000FC
